:020000040800F2
:100000005009002095010008453F0008F73D000811
:1000100000000000000000000000000000000000E0
:100020000000000000000000000000007B44000809
:10003000000000000000000097400008BD470008D5
:10004000A7010008A7010008A7010008A7010008F0
:10005000A7010008A7010008A7010008A7010008E0
:1000600000000000A7010008A7010008A701000880
:10007000A70100080D4A0008A7010008A701000811
:10008000A70100080000000000000000A701000810
:1000900000000000A7010008A7010008A701000850
:1000A000000000000542000800000000C1590008DF
:1000B00000F002F800F042F80CA030C8083824180C
:1000C0002D18A246671EAB4654465D46AC4201D190
:1000D00000F034F87E460F3E0FCCB6460126334280
:1000E00000D0FB1AA246AB463343184734600000E9
:1000F00054600000103A02D378C878C1FAD8520789
:1001000001D330C830C101D504680C6070470000CD
:100110000023002400250026103A01D378C1FBD823
:10012000520700D330C100D50B6070471FB500984F
:10013000019900F0E8FB1FBD10B510BD00F0E1FC17
:100140001146FFF7F3FF05F057FD00F0F9FC03B48B
:10015000FFF7F2FF03BC00F059FD000070B5054643
:100160000C46164602E00FCC0FC5103E102EFAD2F8
:10017000082E02D303CC03C5083E042E07D301CCBE
:1001800001C5361F03E021782970641C6D1C761EA2
:10019000F9D270BD0748804707480047FEE7FEE7F1
:1001A000FEE7FEE7FEE7FEE704480549054A064B81
:1001B000704700000B4A0008B100000850030020FF
:1001C00050090020500500205005002070B506465B
:1001D00000F07CFB056830460B30C408E400B442F4
:1001E00001D8002070BD68682A46002818D0016830
:1001F000A14211D30B46214608318B4208D34368F4
:1002000001194B6003681B1B0B605160046001E027
:1002100041685160001D70BD024640680028E6D16B
:100220002146284600F05AFB0028DCD170BD70B58D
:100230000446051F00F04AFB0068002C1AD04468F1
:1002400001E020466468002C01D0AC42F9D301687B
:100250000A18AA4204D12A6805468918016000E0FC
:10026000456028684119A14205D16168696021682B
:100270004018286070BD6C6070BD10B5202A04DB8A
:100280000846203AD040002110BD0B462024D34020
:10029000D040A21A91400843194610BDFEB505464C
:1002A00010460C46184373D0AE468C460020AD1A5B
:1002B00001469C4167D36646002701243D46B61A95
:1002C0009D4102D313463A462124654676462F04C3
:1002D000360C3E432D0CB61A9D4104D3150C1B045D
:1002E0002B4312041034654676462F06360A3E43E9
:1002F0002D0AB61A9D4104D3150E1B022B43120280
:100300000834654676462F0736093E432D09B61A4E
:100310009D4104D3150F1B012B431201241D65467B
:100320007646AF07B6083E43AD08B61A9D4104D3E2
:10033000950F9B002B439200A41C65467646EF0761
:1003400076083E436D08B61A9D411AD392185B4158
:10035000641C16E00018764665464941B71A9D416F
:100360000191009009D36046B11A98418E468446A7
:10037000009801990025401C6941DD0752082A4375
:100380005B08641EE6D57246634603B0F0BDFFE726
:1003900000200146C046C0462A462346F5E7F8B588
:1003A000042A2CD3830712D00B78491C0370401CFD
:1003B000521E83070BD00B78491C0370401C521E41
:1003C000830704D00B78491C0370401C521E8B0716
:1003D0009B0F05D0C91ADF002023DE1B08C90AE0E5
:1003E000FFF7BCFEF8BD1D4608C9FD401C46B440E1
:1003F0002C4310C0121F042AF5D2F308C91A521E4A
:10040000F0D40B78491C0370401C521EEAD40B78C0
:10041000491C0370401C012AE4D409780170F8BD1E
:1004200001E004C0091F0429FBD28B0701D502801B
:10043000801CC90700D00270704700290BD0C30789
:1004400002D00270401C491E022904D3830702D542
:100450000280801C891EE3E70022EEE70022DFE72E
:10046000002203098B422CD3030A8B4211D30023B1
:100470009C464EE003460B433CD4002243088B428B
:1004800031D303098B421CD3030A8B4201D3944618
:100490003FE0C3098B4201D3CB01C01A524183090B
:1004A0008B4201D38B01C01A524143098B4201D3C5
:1004B0004B01C01A524103098B4201D30B01C01AF0
:1004C0005241C3088B4201D3CB00C01A524183086A
:1004D0008B4201D38B00C01A524143088B4201D397
:1004E0004B00C01A5241411A00D2014652411046F7
:1004F00070475DE0CA0F00D04942031000D340426C
:10050000534000229C4603098B422DD3030A8B42A1
:1005100012D3FC22890112BA030A8B420CD389013F
:1005200092118B4208D3890192118B4204D3890125
:100530003AD0921100E08909C3098B4201D3CB0163
:10054000C01A524183098B4201D38B01C01A524118
:1005500043098B4201D34B01C01A524103098B421C
:1005600001D30B01C01A5241C3088B4201D3CB0007
:10057000C01A524183088B4201D38B00C01A5241EA
:10058000D9D243088B4201D34B00C01A5241411AC1
:1005900000D20146634652415B10104601D34042EF
:1005A000002B00D54942704763465B1000D34042A0
:1005B00001B50020C046C04602BD70477047704775
:1005C0000246C80FC00781434B0030B54B405B006B
:1005D0009B0D20D01923DB06C91801231B05994266
:1005E00020DB0324A40704251346AB400BD3002BC8
:1005F00004D1EB0613409B00E34204D401246407BA
:10060000002312195941FF231B0599420BD2C9003F
:100610000143500F09E0CB0204D501430803024314
:1006200005D0054830BDFF21C905084330BD084647
:1006300007210905884330BD0000C07F0121C9059D
:100640000123411842001B06D3185B0E0AD0C110CB
:100650000722D206891840075242D14201D55200E2
:1006600089187047090208D50146002A03D0C10F36
:10067000C9070020704710467047420202D0002090
:1006800002497047072109050143F4E70000F87F9C
:10069000F0B5FF252D04C609C209FF2704462E40E8
:1006A0000137CB093E4348402A402B400746002AE9
:1006B0006BD0002B69D0AA4267D0AB4265D000282E
:1006C00000DA32460125ED0529432C4309022002B8
:1006D000090AD21A4B0C7F24E31A434C000A7C44CB
:1006E000E35C7D242404121914145B00A2188842D0
:1006F00001D3521C00E0400049420C465C432411E7
:100700005C43DB016415E318040A5C43C502200D59
:100710000C4644436419250A5D432303EC0C0D4643
:10072000654300030019EB184C42A34201D35B1848
:10073000401CD4052018002B07D05B00C91804D337
:10074000401C002901D1400840003F2189048A4211
:1007500009D3002A08DC1106090F04D00321490738
:100760004018C00FC007F0BD0122410012068918D1
:100770007F2252069142F6D205214907C84201D58F
:100780009010F0BDFF20C005F0BD002F00DA32460A
:100790001648AA4207D2AB4205D21902090E17D059
:1007A000F80FC007F0BDFF2563002D06AB42F9D856
:1007B0004900A942F6D8AB4201D1A942F2D0A942E0
:1007C00001D1002101E061004908D0050843F0BDD6
:1007D0001102090EFBD0FF200243D005F0BD0A46EE
:1007E0000146104654E70000FE5900000000C07F9B
:1007F00010B501469E240002CA15A307002A02D0A4
:100800001843002A04DBA21A002A0CDDD04010BDD8
:100810001206120E01D140004008A21A03D4D040A3
:1008200040420028F3DDFF2248001206904201D921
:10083000002010BDC817C043584010BD0102C215AA
:1008400004D00123DB071943002A0ADB9E239A1AEE
:1008500002D40846D0407047FF2241001206914260
:1008600001D900207047C017C04370471F22030CF6
:1008700002D10F2200041CD0030E01D10002083A5D
:10088000030F01D10001121F830F01D18000921EBE
:10089000002801DB4000521ED205511802125118E7
:1008A0001922904004D3491C002801D1490849006D
:1008B00008467047C10FC90700D040420122920785
:1008C0001143D3E701218907D0E7000000487047B2
:1008D000F8020020704770477047704738B50446EB
:1008E0000A4600206946C046C046002805D0024698
:1008F0002046009900F0BAF8012038BD10B501205B
:1009000000F0CEF810BDF8B5C046C0460546002040
:100910000C461020C0460646A819A0420DD9324602
:1009200069460020C046C046070001D100F0B8F873
:100930000098A04200D00546C419FFF7C7FFF61D76
:1009400007460560F008C0004619284600F008F880
:10095000B44204D031463868A21B00F087F8F8BDD5
:1009600000210160416080607047102070470000E6
:10097000F8B5224C4E00069DA6420AD8A64201D1E7
:10098000002806D15E00A64203D8A6420AD1002A5A
:1009900008D00D24240425422CD02946002000F044
:1009A00085F8F8BD0C461C430CD4994202D0EFF3F5
:1009B0000080F8BD904202D0EFF30080F8BDEFF365
:1009C0000080F8BD09242407E5008B4206D0EFF330
:1009D0000080A043591A06D2284304E0101A05D318
:1009E000EFF30080A04380F30088F8BDEFF30080B0
:1009F000A043F1E7009500F071F8F8BD0000E0FFBA
:100A000010B5FF231B0644009C421DD84C009C429D
:100A10001AD80346124A0B4307D4401A02D3EFF305
:100A2000008010BDEFF3008010BD081A06D2EFF36E
:100A3000008001219043C907084302E0EFF30080E2
:100A4000904380F3008810BD0D231B041A4204D08C
:100A50001146002000F02AF810BD00F049F810BD42
:100A60000000009000487047F002002010B50346D7
:100A7000406801E003464068002801D08842F9D36D
:100A80001868C3188B4206D0CB1CD808C000001DC4
:100A9000411A521A0146081D0A60FFF7C8FB10BD33
:100AA00010B500F05BF800F053F810BDC80212D585
:100AB0004803400F002804D0C803C04301218840E8
:100AC0007047EFF300800001000903210907084384
:100AD00080F30088704700207047000010B50020A8
:100AE0000249029A00F062F810BD00000000F87F91
:100AF00010B5024800F05AF810BD00000000C07F99
:100B000070477546FFF7AEFFAE460500694653468F
:100B1000C008C000854618B020B5FFF745FB60BC93
:100B200000274908B6460026C0C5C0C5C0C5C0C517
:100B3000C0C5C0C5C0C5C0C5403D49008D46704751
:100B400010B50446C046C0462046FFF700FB10BD66
:100B500010B5002801D000F059F810BD10B50128DB
:100B600005D0002103A000F057F8012010BD09A115
:100B7000F8E7000053494752544D454D3A204F7510
:100B800074206F662068656170206D656D6F727985
:100B9000000000003A2048656170206D656D6F723D
:100BA0007920636F727275707465640010B50C46BD
:100BB0001107090F092904D00A290AD008290CD1E4
:100BC00004E011460820FFF771FF06E0510606D544
:100BD00001E0510601D50120C007214610BDD10614
:100BE00007D501010909CC084907000E0006044396
:100BF00009E0410F20024907000A0143200E0006C8
:100C00001D22D14101430846E7E7000001491820B1
:100C1000ABBEFEE72600020070B505460C460A2072
:100C200000E06D1C00F012F8002D06D02878002896
:100C3000F7D102E0641C00F009F8002C02D0207803
:100C40000028F7D10A2000F001F870BD08B5694608
:100C500008700320ABBE08BD10B586B00446142151
:100C600001A8FFF7FBFB00BF404840690121490490
:100C700008433E494861084640690121490408404B
:100C8000009000BF00BF00BF3848406908433749A3
:100C9000486108464069012149040840009000BFAE
:100CA00000BF00BF314840690843304948610846E9
:100CB0004069012149040840009000BF00BF0220A4
:100CC00002900390032004900020059020200190C2
:100CD00001A90920C00600F0B5FB4020019001A940
:100CE0000920C00600F0AEFB102001900120029008
:100CF000002003900320049001A90920C00600F001
:100D0000A1FB10200921C906886100BF174880692E
:100D1000012109030843154988610846806989143F
:100D20000840009000BF00BF11482060FF20053040
:100D300060600021A1600F210902E16002212161B0
:100D4000012161614902A1613021E161002121623B
:100D50006162A1620721E162204601F0DBFD00280B
:100D600001D000F0AAF806B010BD0000001002404B
:100D70000030014008B50020009001200005092145
:100D8000C90688610023DB4301226946094801F056
:100D90002DFF0023DB43012200A90231054801F0A9
:100DA00025FF10200921C906886168460088400493
:100DB000000D08BD5C0200200021017041708170AF
:100DC000C17001717047027801238B409A43027011
:100DD000704700210170704770B508490868FFF737
:100DE0002DFC4900490804460022054B04F0DEFFB3
:100DF00001D2002070BD0120FCE70000200000208F
:100E000000001040F8B50024FFF7B4FF1E498880A9
:100E1000084680881D49097849001D4A505205211D
:100E20001A480078401CFFF725FBC8B21749087024
:100E30000521174803F04AF804461348807D00282E
:100E400008D12046FFF73EFD0F4940398865012152
:100E50000D4881752046FFF735FD07460A484038A2
:100E6000816D384605F0C8F806460A4905F040F895
:100E7000054605484038816D284604F0C9FF0249FF
:100E800040398865F8BD000060000020080100209E
:100E9000C0020020310CC33D10B50548826C016DC5
:100EA00003F0FAF80249C86903F06EFB10BD0000B8
:100EB0002000002054221152704772B600BFFEE796
:100EC00000200749C8610748006904210843054913
:100ED00008610846006940210843024908617047DB
:100EE000D0020020002002400021084AD1610849B8
:100EF000096902221143064A1161114648610969D4
:100F000040221143024A116170470000D0020020C4
:100F1000002002400022054BDA61054A12690123D4
:100F20001A43034B1A61018070470000D002002071
:100F30000020024000200F49C968102211401029EA
:100F400007D10D49C969022211430B4AD161102111
:100F500008430849C96804221140042907D10649F9
:100F6000C96901221143044AD1610421084301499E
:100F7000C860704700200240D002002070B50446CF
:100F800000F074FC05460BE0601C002808D0002C23
:100F900004D000F06BFC401BA04201D9032070BDBF
:100FA0000F48C068C007C00F0028EDD10C48C068CA
:100FB00020210840202801D10949C8600848C0689C
:100FC00010210840102805D00548C06804210840B9
:100FD000042803D1FFF7AEFF0120E0E70020DEE7A1
:100FE0000020024000B587B0142102A8FFF736FAAE
:100FF00000BF45484069012149040843424948610E
:1010000008464069012149040840019000BF00BF23
:101010000812029001200390002004900320059004
:1010200002A90920C00600F00DFA00BF3648406949
:101030000121C90408433449486108464069012137
:10104000C9040840019000BF00BF88110290002031
:10105000039004900320059002A92C4800F0F2F9B7
:1010600000BF294840690121C90408432649486155
:10107000084640690121C9040840019000BF00BF33
:10108000481102900020039004900320059002A9CB
:101090001E4800F0D7F900BF1B4840690121C90470
:1010A000084319494861084640690121C9040840BC
:1010B000019000BF00BF081102900020039004902F
:1010C0000320059002A9114800F0BCF900BF0E48AA
:1010D00040690121890408430B4948610846406979
:1010E000012189040840019000BF00BF88110290CF
:1010F0000020039004900320059002A9044800F00A
:10110000A1F907B000BD000000100240000800482F
:101110000004004870B5044600252120005D022827
:1011200003D00420A06301251EE0206800680E2182
:1011300088432168086020680068400840002168F2
:1011400008600120216C8840E16B4860012121206A
:10115000015500BF00212020015500BF606B002811
:1011600002D02046616B8847284670BD70B50446A2
:1011700000F07CFB06462546681C002802D0054886
:1011800000782D1800BF00F071FB801BA842FAD335
:1011900070BD000014010020F8B504460E4601277A
:1011A000002500BF3748007E012801D10220F8BD8C
:1011B00001203449087600BF2068002802D020684A
:1011C000012800D103E0A8212FA004F0DDFC206855
:1011D000012811D13C48FFF7D1FE00284BD1FFF781
:1011E0006FFE3948FFF7CAFE0746384800690421F8
:1011F0008843364908613EE00121C906606888429B
:1012000004D333496068884200D803E0BE211EA0A1
:1012100004F0BAFCA168890260684018401E2C499D
:10122000884200D803E0BF2117A004F0ADFC264897
:10123000FFF7A4FE00281ED1401E3060656813E051
:101240002846FFF751FE2048FFF798FE07461F4843
:101250000069022188431D490861002F01D03560D3
:1012600008E0012080022D18A06880026168401803
:10127000A842E5D800BF00BF00200249087600BFA1
:10128000384694E7D00200202E2E2F4C69627261FE
:10129000726965732F53544D3332463078785F4806
:1012A000414C5F4472697665722F5372632F737479
:1012B0006D3332663078785F68616C5F666C61733D
:1012C000685F65782E63000050C300000020024074
:1012D000FF7F000803480069802108430149086135
:1012E0000020704700200240F0B51FB486B00446CD
:1012F0000D460120049000260020039000BF3148D5
:10130000007E012802D102200BB0F0BD01202D4942
:10131000087600BF012C03D0022C01D0032C00D191
:1013200003E0B12128A004F02FFC0120C006854273
:1013300003D33448854200D803E0B22122A004F050
:1013400023FC3148FFF71AFE04900498002831D19D
:10135000012C02D10120039006E0022C02D10220D0
:10136000039001E00420039000261FE03201089F53
:101370000998059038460599FEF77FFF80B20290E4
:101380007000401901900299FFF7C4FD1E48FFF755
:10139000F5FD04901D480069400840001B490861A4
:1013A0000498002800D004E0701CC6B2039886425E
:1013B000DCDB00BF00BF00200249087600BF0498B4
:1013C000A2E70000D00200202E2E2F4C696272612D
:1013D000726965732F53544D3332463078785F48C5
:1013E000414C5F4472697665722F5372632F737438
:1013F0006D3332663078785F68616C5F666C6173FC
:10140000682E6300FF7F000850C3000000200240E8
:101410000020094909698022114000290BD00749A1
:10142000054A516006495160114609698022114000
:10143000002900D0012070470020024023016745A9
:10144000AB89EFCDFEB506460C4600270920C00645
:10145000864208D0AE48864205D0AE48864202D0C9
:10146000AD48864200D103E0B821ACA004F08CFB6B
:10147000208880B2002805D02068000C00040028D5
:1014800000D103E0B921A5A004F07EFB606800282C
:1014900026D06068012823D06068112820D06068B9
:1014A00002281DD0606812281AD0AB4960688842B3
:1014B00016D0AA496068884212D0A949606888425B
:1014C0000ED0A849606888420AD0A749606888425F
:1014D00006D0A6496068884202D06068032800D11F
:1014E00003E0BA218DA004F04FFBA068002805D0CE
:1014F000A068012802D0A068022800D103E0BB2127
:1015000086A004F041FBFCE00121B94020680840BE
:101510000190019800287DD06068022802D06068A0
:10152000122829D10920C006864202D07848864276
:1015300000D103E0CA2179A004F026FB2069062827
:1015400000D803E0CB2175A004F01EFBF808810051
:101550003046203045587807C10E0F208840294674
:1015600081430D467907C90E206988400543F80874
:10157000810030462030455035687900032088408E
:10158000294681430D4620798007800F79008840E5
:10159000054335606068012808D06068022805D0DE
:1015A0006068112802D06068122826D1E0680028FF
:1015B00005D0E068012802D0E068032800D103E0EC
:1015C000DF2156A004F0E0FAB568790003208840D6
:1015D000294681430D467900E06888400543B5609F
:1015E00075680120B840294681430D461021606886
:1015F00008400009B84005437560F568790003208C
:101600008840294681430D467900A06888400543FB
:10161000F56000E074E00121090760680840884235
:101620006ED100BF5248806901210843504988614A
:1016300008468069C007C00F009000BF00BF4D483A
:10164000B90889004558B807010F0F20884029467E
:1016500081430D460920C006864201D100200AE0E0
:101660002B48864201D1012005E02A48864201D15B
:10167000022000E00520B907090F884005433D48D6
:10168000B908890045503C480568294601988143BE
:101690000D460121090460680840884201D1019883
:1016A00005433548056045682946019881430D4644
:1016B0000121490460680840884201D1019805432E
:1016C0002D48456085682946019881430D460121D2
:1016D000090560680840884201D101980543264801
:1016E0008560C5682946019881430D460121490559
:1016F00060680840884201D1019805431E48C560D2
:101700007F1C2068F840002800D0FDE6FEBD0000E8
:101710000004004800080048001400482E2E2F4CFA
:1017200069627261726965732F53544D333246306A
:1017300078785F48414C5F4472697665722F5372C6
:10174000632F73746D3332663078785F68616C5FD5
:101750006770696F2E6300000000111000002110F7
:1017600000003110000012100000221000003210A2
:1017700000100240080001400004014070B5064618
:101780000C46A0B2002804D0200C0004002800D190
:1017900004E0FF21863106A004F0F6F9306920400C
:1017A000002801D0012500E00025284670BD00007A
:1017B0002E2E2F4C69627261726965732F53544DDE
:1017C0003332463078785F48414C5F4472697665C1
:1017D000722F5372632F73746D3332663078785F73
:1017E00068616C5F6770696F2E63000070B50646B4
:1017F0000C461546A0B2002804D0200C0004002896
:1018000000D104E0FF21A53109A004F0BDF9002DAD
:1018100001D0012D00D104E0FF21A63104A004F085
:10182000B3F9002D01D0B46100E0B46270BD0000D6
:101830002E2E2F4C69627261726965732F53544D5D
:101840003332463078785F48414C5F447269766540
:10185000722F5372632F73746D3332663078785FF2
:1018600068616C5F6770696F2E63000001480068F3
:10187000704700000C010020034800680349097804
:1018800040180149086070470C0100201401002035
:1018900010B5064800681021084304490860032079
:1018A00000F006F800F02EF8002010BD00200240E5
:1018B00070B50446104801787D20C000FEF7D0FDC9
:1018C000064631460D480068FEF7CAFD054601F0A0
:1018D00057FC002801D0012070BD042C07D2002243
:1018E0002146501E00F046F80548046001E0012042
:1018F000F2E70020F0E700001401002018010020AA
:10190000100100207047000010B50446002C00DBD9
:1019100003E09B2106A004F037F92046002805DBF0
:10192000C206D20E01219140114A116000BF10BDC4
:101930002E2E2F4C69627261726965732F53544D5C
:101940003332463078785F48414C5F44726976653F
:10195000722F5372632F73746D3332663078785FF1
:1019600068616C5F636F727465782E6300000000BD
:1019700000E100E070B505460C461646042C00D286
:1019800003E08B2103A004F0FFF82146284604F071
:10199000BFF870BD2E2E2F4C69627261726965733B
:1019A0002F53544D3332463078785F48414C5F4472
:1019B00072697665722F5372632F73746D3332665A
:1019C0003078785F68616C5F636F727465782E63DE
:1019D00000000000F8B50446002600256C49206888
:1019E000884200D803E06E216AA004F0CDF80121FE
:1019F000090420680840884270D1606800280CD033
:101A000009126068884208D049006068884204D0A2
:101A1000032109026068884200D103E074215DA0BF
:101A200004F0B2F800276B48C0690121090708409B
:101A300000280DD100BF6748C06908436549C861E7
:101A40000846C06909040840009000BF00BF012794
:101A500061480068FF2101310840002816D15E4826
:101A6000006808435C490860FFF700FF064606E08F
:101A7000FFF7FCFE801B642801D90320F8BD5648FF
:101A80000068FF21013108400028F1D05148006A68
:101A90000321090208400546002D2ED06068084049
:101AA000A8422AD04B48006A884305464948006A44
:101AB000012109040843474908620846006A0121D8
:101AC000090488434349086208460562E807C00FD5
:101AD000002812D0FFF7CAFE064608E01FE0FFF715
:101AE000C5FE801B3D49884201D90320C6E739481D
:101AF000006A022108400028F1D03648006A03211C
:101B0000090288436168084332490862012F05D100
:101B10000846C069090488432E49C86100BF20787F
:101B2000C007C00F002818D0A068002808D0A068FF
:101B3000012805D0A068022802D0A068032800D19F
:101B400003E0BB2113A004F01FF82248006B8008BB
:101B50008000A16808431F490863202120680840CD
:101B6000202812D1E068002802D0E068102800D1B7
:101B700003E0DF2107A004F007F81648006B1021EE
:101B80008843E168084313490863002076E70000B2
:101B9000210001002E2E2F4C6962726172696573FB
:101BA0002F53544D3332463078785F48414C5F4470
:101BB00072697665722F5372632F73746D33326658
:101BC0003078785F68616C5F7263635F65782E63FD
:101BD0000000000000100240007000408813000068
:101BE00070B504460D46002C01D1012070BD20784F
:101BF000C007C00F002809D1022120680840022830
:101C000004D0042120680840042800D103E07F4963
:101C10007FA003F0B9FF002D01D0012D00D104E019
:101C20007A49491C7AA003F0AFFF88480068C007D2
:101C3000C00FA8420ED285480068400840002843E3
:101C40008249086008460068C007C00FA84201D05A
:101C50000120CBE7022120680840022835D1042169
:101C600020680840042807D1794840680721090204
:101C70008843401876494860A068002817D0A068BB
:101C8000802814D0A068902811D0A068A0280ED079
:101C9000A068B0280BD0A068C02808D0A068D028C1
:101CA00005D0A068E02802D0A068F02800D104E0A8
:101CB0005649203156A003F067FF65484068F0217F
:101CC0008843A1680843624948602078C007C00F74
:101CD00000284AD06068002805D06068012802D03A
:101CE0006068022800D104E04849273148A003F089
:101CF0004BFF6068012808D155480068012149045C
:101D00000840002815D1012070E76068022808D13A
:101D10004F480068012149060840002809D10120E8
:101D200064E74B48006802210840002801D10120E7
:101D30005CE7474840688008800061680843444980
:101D40004860FFF793FD064607E0FFF78FFD801B15
:101D50004049884201D9032048E73D4840680C21AA
:101D60000840616889008842EFD138480068C007A0
:101D7000C00FA8420ED935480068400840002843EB
:101D80003249086008460068C007C00FA84201D069
:101D900001202BE7042120680840042824D1E068B2
:101DA000002812D00902E06888420ED005210902FD
:101DB000E068884209D003214902E068884204D0E3
:101DC00007210902E068884200D104E0E12189008E
:101DD0000FA003F0D9FE1E4840680721090288437E
:101DE000E16808431A49486000F052F81849496808
:101DF000F02211400909184A515CC840174908608F
:101E00000320FFF755FD0020F0E600001603000058
:101E10002E2E2F4C69627261726965732F53544D77
:101E20003332463078785F48414C5F44726976655A
:101E3000722F5372632F73746D3332663078785F0C
:101E400068616C5F7263632E6300000000200240D3
:101E50000010024088130000C8600008180100202C
:101E600001480068704700001801002000B5FFF726
:101E7000F7FF05494968072212021140090A034A7F
:101E8000515CC84000BD000000100240D86000084E
:101E9000F0B589B027A001460EC9C06805AC0EC4D4
:101EA000089028A001460EC9C06801AC0EC4049079
:101EB00000240025002700260020009025484468C3
:101EC0000C20204000282DD0042802D0082828D13A
:101ED00002E02148009028E00F2080042040800C80
:101EE00005A90E5C1B48C06A0007000F01A90D5C24
:101EF0000120000420400121090488420AD12A4619
:101F0000002315481946FEF7C9F9314603F0DAFDFA
:101F1000074604E01148314603F0D4FD0746009718
:101F200003E000BF0C48009000BF00BF009809B05C
:101F3000F0BD000002030405060708090A0B0C0D9A
:101F40000E0F10100102030405060708090A0B0C06
:101F50000D0E0F100010024000127A0000093D0023
:101F6000FEB50446002C01D10120FEBD20680028EA
:101F700018D02078C007C00F002813D10221206894
:101F8000084002280ED0082120680840082809D0FF
:101F9000042120680840042804D01021206808404B
:101FA000102800D104E0FF213A31F7A003F0ECFD46
:101FB0002078C007C00F002872D06068002805D0C4
:101FC0006068012802D06068052800D104E0FF2184
:101FD0004031EDA003F0D8FDFA4840680C210840DC
:101FE00004280BD0F74840680840082812D1F5486B
:101FF000406801210904084088420BD1F14800687B
:1020000001214904084000286CD06068002869D18B
:102010000120AAE700BF6068012807D1E9480068ED
:10202000012109040843E749086031E0606800289D
:102030000ED1E4480068012109048843E1490860A1
:1020400008460068012189048843DE4908601FE0D2
:10205000606805280ED1DB48006801218904084327
:10206000D849086008460068012109040843D54999
:1020700008600DE0D3480068012109048843D14974
:10208000086008460068012189048843CD4908603A
:1020900000BF6068002813D0FFF7E8FB054607E0A3
:1020A00020E0FFF7E3FB401B642801D903205CE735
:1020B000C44800680121490408400028F1D011E01B
:1020C000FFF7D4FB054606E0FFF7D0FB401B642872
:1020D00001D9032049E7BB480068012149040840B1
:1020E0000028F1D1022120680840022876D1E0685A
:1020F000002802D0E068012800D104E0FF217431FB
:10210000A1A003F041FD20691F2800D804E0FF21B1
:1021100075319DA003F038FDAA4840680C210840A5
:1021200000280BD0A7484068084008281BD1A548C4
:102130004068012109040840002814D1A148006822
:1021400002210840002804D0E068012801D00120C5
:102150000BE79C480068F82188432169C9000843BF
:10216000984908603AE0E068002820D09548006867
:102170000121084393490860FFF778FB054606E014
:10218000FFF774FB401B022801D90320EDE68D48C0
:102190000068022108400028F2D08A480068F8212F
:1021A00088432169C90008438649086016E08548CC
:1021B00000684008400083490860FFF757FB054668
:1021C00006E0FFF753FB401B022801D90320CCE6B1
:1021D0007C480068022108400028F2D108212068CC
:1021E000084008283DD1E069002802D0E0690128B4
:1021F00000D104E0FF21B53163A003F0C5FCE06924
:10220000002817D06F48406A012108436D49486291
:10221000FFF72CFB054606E0FFF728FB401B0228D2
:1022200001D90320A1E66748406A0221084000283E
:10223000F2D016E06348406A4008400061494862B5
:10224000FFF714FB054606E0FFF710FB401B0228D2
:1022500001D9032089E65B48406A02210840002832
:10226000F2D104212068084004286FD10020019099
:10227000A068002805D0A068012802D0A068052821
:1022800000D104E0FF21E1313FA003F07DFC4D4887
:10229000C06901210907084000280ED100BF494844
:1022A000C06908434749C8610846C0690904084035
:1022B000009000BF00BF0120019043480068FF214B
:1022C00001310840002816D13F48006808433E49C4
:1022D0000860FFF7CBFA054606E0FFF7C7FA401B98
:1022E000642801D9032040E637480068FF21013106
:1022F00008400028F1D000BFA068012806D131486D
:10230000006A012108432F4908622CE0A0680028D8
:102310000CD12C48006A400840002A49086208464F
:10232000006A04218843274908621CE0A068052848
:102330000DD12448006A0421084322490862084656
:10234000006A012108431F4908620CE064E01D484F
:10235000006A400840001B4908620846006A0421E0
:1023600088431849086200BFA068002837D0FFF7EB
:102370007DFA05462CE0FFF779FA401B13498842A5
:1023800026D90320F1E500002E2E2F4C69627261E0
:10239000726965732F53544D3332463078785F48F5
:1023A000414C5F4472697665722F5372632F737468
:1023B0006D3332663078785F68616C5F7263632E6C
:1023C000630000000010024000700040881300000D
:1023D000E448006A022108400028CCD011E0FFF751
:1023E00045FA054607E0FFF741FA401BDE498842FF
:1023F00001D90320B9E5DB48006A02210840002822
:10240000F1D10198012806D1D648C06901210907F8
:102410008843D449C86100BF1021206808401028B3
:1024200071D16069002806D06069012803D0606915
:10243000401D002800D103E0CC49CD4803F0A4FBA7
:10244000A0691F2800D804E0C849491CC84803F007
:102450009BFB6069012826D1C248406B04210843D8
:10246000C04948630846406B01210843BD494863A1
:10247000FFF7FCF9054606E0FFF7F8F9401B0228D4
:1024800001D9032071E5B748406B022108400028BC
:10249000F2D0B448406BF8218843A169C9000843D1
:1024A000B04948632FE06069401D00280FD1AD4856
:1024B000406B04218843AB4948630846406BF821D0
:1024C0008843A169C9000843A64948631BE0A548A1
:1024D000406B04210843A34948630846406B400809
:1024E00040004863FFF7C2F9054606E0FFF7BEF972
:1024F000401B022801D9032037E59A48406B02218E
:1025000008400028F2D1206A002805D0206A01285E
:1025100002D0206A022800D104E094497431944822
:1025200003F032FB206A00287ED08E4840680C21E0
:102530000840082879D0206A022877D1606A0028EC
:1025400004D001210904606A884200D104E087496F
:102550007D31874803F018FBA06A002844D0012190
:102560008904A06A88423FD04900A06A88423BD0D3
:1025700003218904A06A884236D001210905A06A96
:10258000884231D005218904A06A88422CD00321D9
:10259000C904A06A884227D007218904A06A88421A
:1025A00022D001214905A06A88421DD00921890451
:1025B000A06A884218D00521C904A06A884213D0B5
:1025C0000B218904A06A88420ED003210905A06A64
:1025D000884209D00D218904A06A884204D00721CD
:1025E000C904A06A884200D104E0A921890060489A
:1025F00003F0CAFAE06A002830D0E06A01282DD042
:10260000E06A02282AD0E06A032827D0E06A04287A
:1026100024D0E06A052821D0E06A06281ED0E06AAE
:1026200007281BD0E06A02E09AE07FE064E0082817
:1026300014D0E06A092811D0E06A0A280ED0E06AB6
:102640000B280BD0E06A0C2808D0E06A0D2805D0D2
:10265000E06A0E2802D0E06A0F2800D104E0434966
:102660007F31434803F090FA3E4800680121090693
:1026700088433C490860FFF7F9F8054606E0FFF794
:10268000F5F8401B022801D903206EE435480068A4
:102690000121490608400028F1D100BF3148C06A35
:1026A00000090001E16A08432E49C862616AA06A14
:1026B00008432C4949683D221204914308432949A3
:1026C000486000BF08460068012109060843254903
:1026D0000860FFF7CBF8054606E0FFF7C7F8401B98
:1026E000022801D9032040E41E4800680121490660
:1026F00008400028F1D033E01A480068012109069B
:10270000884318490860FFF7B1F8054606E0FFF76F
:10271000ADF8401B022801D9032026E411480068C7
:102720000121490608400028F1D119E0206A01285A
:1027300000D11AE40B484668C76A01200004304003
:10274000616A88420AD13907090FE06A814205D1DE
:102750000F2080043040A16A884201D0012004E4A7
:10276000002002E40010024088130000260200004E
:102770008823000870470000F8B5044620684668C2
:102780002068856840202840800900280FD1E8078C
:10279000C00F012148404840002808D04020304068
:1027A0008009002803D02046E16C8847F8BD02204C
:1027B00028404008002808D080203040C009002868
:1027C00003D02046216D8847F0E7202028404009AB
:1027D00000280AD1402028408009002805D1FF2088
:1027E00001302840000A00287ED0202030404009D7
:1027F0000028F9D040202840800900281ED05D2004
:10280000005D03280ED0206E04210843206600BF1F
:10281000002000902068C0680090206880680090C8
:1028200000BF0BE000BF002000902068C06800904F
:1028300020688068009000BF00BFB7E720202840D4
:102840004009002811D0206E01210843206600BFF6
:102850000020009020688068009020680068402177
:1028600088432168086000BF00BFFF200130284076
:10287000000A00280BD0206E08210843206600BF04
:102880000020009020688068009000BF00BF206E8C
:1028900000283AD020684068E021884321684860D9
:1028A00001215D20015502203040022803D0F007AD
:1028B000C00F002826D0206840688008800021686A
:1028C0004860A06D00280BD01148A16D4863A06D31
:1028D000FEF720FC002803D0206E4021084320662C
:1028E000606D002811D000E010E00948616D486378
:1028F000606DFEF70FFC002807D0206E40210843D2
:10290000206602E02046FFF735FF4FE700BF4DE7A6
:102910001542000870B50446002C01D1012070BD9D
:10292000A1492068884200D104E0FF2151319FA0D5
:1029300003F02AF96068002804D0FF21053160689F
:10294000884200D104E0FF21523198A003F01CF925
:10295000A068002808D001218902A068884203D01D
:102960004901A068884200D104E0FF2153318FA0C3
:1029700003F00AF90F210902E06888423BD00721E1
:102980004902E068884236D00D210902E068884299
:1029900031D003218902E06888422CD00B21090242
:1029A000E068884227D005214902E068884222D0A9
:1029B00009210902E06888421DD00121C902E068AE
:1029C000884218D007210902E068884213D0032109
:1029D0004902E06888420ED005210902E068884279
:1029E00009D001218902E068884204D0032109024C
:1029F000E068884200D104E0FF2154316BA003F06D
:102A0000C3F801214902A069884206D0A0690028C4
:102A100003D04902A069884200D104E0FF2155316A
:102A200062A003F0B1F8606B082802D0606B002848
:102A300000D104E0FF2156315CA003F0A5F8E06965
:102A4000002814D0E069082811D0E06910280ED0C1
:102A5000E06918280BD0E069202808D0E069282810
:102A600005D0E069302802D0E069382800D104E0C0
:102A7000FF2157314DA003F087F8206A002802D0CB
:102A8000206A802800D104E0FF21583147A003F0DC
:102A90007BF8606A002802D0606A102800D104E048
:102AA000FF21593141A003F06FF8606A002817D167
:102AB0002069002802D02069022800D104E0FF210B
:102AC0005C313AA003F060F86069002802D06069C8
:102AD000012800D104E0FF215D3134A003F054F857
:102AE0000021A1625D20005D002804D15C20015519
:102AF000204600F079F802215D2001552068006829
:102B0000402188432168086007210902E068884263
:102B100001D9002501E001252D030F210902E068FC
:102B2000884206D007210902E068884201D00021CE
:102B3000A162206B002809D107210902E0688842C0
:102B400002D90221216301E001212163A1686068AB
:102B50000843216908436169084301225202A169BF
:102B600011400843E1690843216A0843A16A084308
:102B700021680860A069000C04210840616A0843CC
:102B8000616B0843E1680843284321684860206876
:102B9000C069910088432168C86100202066012136
:102BA0005D2001550020BAE6003001402E2E5C4C1D
:102BB00069627261726965735C53544D3332463099
:102BC00078785F48414C5F4472697665725C5372F5
:102BD000635C73746D3332663078785F68616C5F04
:102BE0007370692E6300000070470000FEB5044654
:102BF0000F4616461D460020019007210902E06895
:102C0000884204D8E06888420AD8012E08D9F8071B
:102C1000C00F002800D103E06C496DA002F0B4FFA2
:102C2000FF210531606888420DD1A06800280AD1D3
:102C300004215D20015533463A4639462046009529
:102C400000F0E4F8FEBD00BF5C20005D012801D16A
:102C50000220F7E701215C20015500BFFEF706FEC8
:102C600002905D20005D012802D002200190A3E0C7
:102C7000002F01D0002E02D1012001909CE0042100
:102C80005D2001550020206627644420065346201D
:102C900006530020A063A087E087E0642065072139
:102CA0000902E068884207D92068406801210903C9
:102CB00088432168486006E02068406801210903D4
:102CC0000843216848600121C903A068884205D1F2
:102CD00020680068491088432168086020680068FF
:102CE00040210840402804D020680068084321683B
:102CF000086007210902E068884227D821E020689F
:102D00008068C007C00F00280DD02068007B216CB0
:102D10000870206C401C20644620005B401E81B27D
:102D2000462001530DE0FEF7A1FD0299401AA8428A
:102D300002D3681C002801D1002D02D1032001908C
:102D40003AE04620005B0028D9D126E021E0206847
:102D50008068C007C00F00280DD02068C068216CB3
:102D60000880206C801C20644620005B401E81B2DD
:102D7000462001530DE0FEF779FD0299401AA84262
:102D800002D3681C002801D1002D02D1032001903C
:102D900012E04620005B0028D9D129462046029A3D
:102DA00001F044FA002801D020202066206E00287F
:102DB00001D00120019000BF01215D20015500BF1D
:102DC00000215C20015500BF01983BE7E9030000AA
:102DD0002E2E5C4C69627261726965735C53544D4E
:102DE0003332463078785F48414C5F44726976658B
:102DF000725C5372635C73746D3332663078785FE3
:102E000068616C5F7370692E63000000FFB587B066
:102E100004461D46109E01200290002001900721CB
:102E20000902E068884204D8E068884216D8012D7B
:102E300014D90898C007C00F002800D103E0C0498A
:102E4000C0A002F0A1FE0998C007C00F002800D161
:102E500004E0BB49491CBBA002F096FEA068002814
:102E600000D104E0B649491DB6A002F08DFE00BFB6
:102E70005C20005D012802D102200BB0F0BD0121D1
:102E80005C20015500BFFEF7F1FC07465D20005DA8
:102E900003906068049006950595039801280DD06D
:102EA000FF2105310498884205D1A068002802D18D
:102EB0000398042802D00220019036E108980028E7
:102EC00004D00998002801D0002D02D101200190E2
:102ED0002BE15D20005D042802D005215D20015515
:102EE000002020660998206446200553442005539D
:102EF0000898A063E587A5870020E0642065072186
:102F00000902E068884202D80598012807D920689C
:102F100040680121090388432168486006E0206871
:102F2000406801210903084321684860206800685F
:102F300040210840402804D02068006808432168E8
:102F4000086007210902E068884254D960680028B7
:102F500002D00698012809D1A06B00882168C860BA
:102F6000A06B801CA063E08F401EE0873BE02068E0
:102F7000806802210840022811D1E08F00280ED07D
:102F8000029801280BD1A06B00882168C860A06B53
:102F9000801CA063E08F401EE08700200290206824
:102FA0008068C007C00F002812D04620005B0028B0
:102FB0000ED02068C068216C0880206C801C2064C2
:102FC0004620005B401E81B2462001530120029042
:102FD000FEF74CFCC01BB04205D3701C002802D089
:102FE00003200190A1E0E08F0028C0D14620005BC3
:102FF0000028BCD18DE06068002802D00698012826
:1030000017D1E08F01280AD9A06B00882168C86019
:10301000A06B801CA063E08F801EE08709E0A06B9E
:10302000007821680873A06B401CA063E08F401EED
:10303000E08767E0206880680221084002281FD1ED
:10304000E08F00281CD00298012819D1E08F0128B8
:103050000AD9A06B00882168C860A06B801CA0639F
:10306000E08F801EE08709E0A06B0078216808737C
:10307000A06B401CA063E08F401EE0870020029000
:1030800020688068C007C00F00282ED04620005B53
:1030900000282AD04620005B012817D92068C06884
:1030A000216C0880206C801C20644620005B801E00
:1030B00081B246200153005B012814D82068406883
:1030C000012109030843216848600CE02068007B67
:1030D000216C0870206C401C20644620005B401E60
:1030E00081B24620015301200290FEF7BFFBC01BB6
:1030F000B04202D3701C002801D1002E02D103205F
:10310000019012E0E08F002894D14620005B002857
:1031100090D13A463146204601F0CFF8002803D03E
:10312000012001902020206600BF01215D20015573
:1031300000BF00215C20015500BF01989DE6000002
:10314000DD0400002E2E5C4C696272617269657349
:103150005C53544D3332463078785F48414C5F447D
:1031600072697665725C5372635C73746D33326638
:103170003078785F68616C5F7370692E630000005F
:1031800070B504462546681E0949884201D90120C8
:103190000CE0681E074948610321081F02F0B8FCD3
:1031A00000200449886107200861002070BD0000EC
:1031B000FFFFFF0000E000E070B504460D46164634
:1031C000002E07D0042E05D0082E03D00C2E01D0DF
:1031D0003C2E00D103E0834983A002F0D5FC28688F
:1031E000602802D02868702800D104E07D49491C7D
:1031F0007DA002F0C9FCA868002802D0A8680228B7
:1032000000D104E07749891C77A002F0BDFC286951
:10321000002802D02869042800D104E07149C91CA3
:1032200071A002F0B1FC00BF3C20005D012801D17B
:10323000022070BD01213C20015500BF02213D202C
:103240000155002E06D0042E3AD0082E65D00C2E43
:1032500071D18DE073492068884214D0012189071B
:10326000206888420FD07049206888420BD06F498F
:103270002068884207D06E492068884203D06D4993
:103280002068884200D104E056490F3156A002F070
:103290007BFC2946206801F077FC206880690821C2
:1032A0000843216888612068806904218843216877
:1032B000886120688069296908432168886185E000
:1032C00058492068884208D001218907206888422F
:1032D00003D055492068884200D104E0414920319B
:1032E00041A002F051FC2946206801F0EBFC206867
:1032F00080690121C90208432168886120688069CA
:1033000001218902884321688861206880692969D0
:10331000090208432168886158E0424920688842D0
:1033200008D0012189072068884203D03E492068DF
:10333000884201D105E048E02A4931312AA002F053
:1033400023FC2946206801F061FD2068C06908213E
:1033500008432168C8612068C06904218843216846
:10336000C8612068C069296908432168C8612DE0E7
:103370002C492068884208D00121890720688842AA
:1033800003D029492068884200D104E01549423120
:1033900015A002F0F9FB2946206801F0DBFD20684A
:1033A000C0690121C90208432168C8612068C06959
:1033B0000121890288432168C8612068C0692969A0
:1033C000090208432168C86100E000BF00BF012175
:1033D0003D20015500BF00213C20015500BF0020C9
:1033E00027E70000EC0D00002E2E2F4C6962726161
:1033F000726965732F53544D3332463078785F4885
:10340000414C5F4472697665722F5372632F7374F7
:103410006D3332663078785F68616C5F74696D2EE9
:1034200063000000002C0140000400400020004028
:10343000004401400048014010B50446002C01D171
:10344000012010BD33492068884214D0012189072A
:10345000206888420FD03049206888420BD02F491D
:103460002068884207D02E492068884203D02D4921
:103470002068884200D103E02B492CA002F084FB95
:10348000A06800280BD0A068102808D0A0682028C9
:1034900005D0A068402802D0A068602800D104E0D0
:1034A0002149491C21A002F06FFB2069002808D0A7
:1034B000FF2101312069884203D0490020698842F8
:1034C00000D104E01849891C18A002F05DFBA06936
:1034D000002802D0A069802800D104E01249C91C4C
:1034E00012A002F051FB3D20005D002805D1002113
:1034F0003C200155204600F037F802213D200155BF
:10350000211D206801F08AFA01213D20015500208B
:1035100097E70000002C014000040040002000401C
:1035200000440140004801409B0400002E2E2F4C17
:1035300069627261726965732F53544D333246303C
:1035400078785F48414C5F4472697665722F537298
:10355000632F73746D3332663078785F68616C5FA7
:1035600074696D2E630000007047000070B504465A
:103570000D4633492068884207D1002D30D0042DF4
:103580002ED0082D2CD00C2D2AD00121890720689F
:10359000884207D1002D23D0042D21D0082D1FD023
:1035A0000C2D1DD027492068884207D1002D17D047
:1035B000042D15D0082D13D00C2D11D022492068D0
:1035C000884201D1002D0BD020492068884201D1CA
:1035D000002D05D01E492068884202D1002D00D15F
:1035E00003E01C491CA002F0CFFA01222946206802
:1035F00001F064FA12492068884207D01349206814
:10360000884203D012492068884201D1012000E09D
:103610000020002806D02068406C0121C90308431F
:1036200021684864206880684607760F062E05D01A
:10363000206800680121084321680860002070BDEF
:10364000002C0140000400400020004000440140E4
:1036500000480140130500002E2E2F4C6962726154
:10366000726965732F53544D3332463078785F4812
:10367000414C5F4472697665722F5372632F737485
:103680006D3332663078785F68616C5F74696D2E77
:103690006300000070B504460D464049206888422A
:1036A00007D1002D30D0042D2ED0082D2CD00C2D7C
:1036B0002AD0012189072068884207D1002D23D014
:1036C000042D21D0082D1FD00C2D1DD03449206889
:1036D000884207D1002D17D0042D15D0082D13D006
:1036E0000C2D11D02F492068884201D1002D0BD01C
:1036F0002D492068884201D1002D05D02B49206832
:10370000884202D1002D00D103E0294929A002F00E
:103710003BFA00222946206801F0D0F91F492068B1
:10372000884207D020492068884203D01F4920687A
:10373000884201D1012000E00020002814D000BF01
:103740002068006A2A49084000280CD12068006AD5
:1037500089100840002806D12068406C0121C90367
:1037600088432168486400BF00BF2068006A204980
:10377000084000280BD12068006A89100840002802
:1037800005D120680068400840002168086000BF3B
:1037900001213D200155002070BD0000002C01409A
:1037A0000004004000200040004401400048014067
:1037B000370500002E2E2F4C6962726172696573A5
:1037C0002F53544D3332463078785F48414C5F4434
:1037D00072697665722F5372632F73746D3332661C
:1037E0003078785F68616C5F74696D2E63000000EB
:1037F000111100007047704710B50446206800683A
:10380000FF212131884321680860206880684008D2
:103810004000216888602068806840210840402876
:1038200027D120688068884321688860E06E00287E
:103830000BD01748E16E4863E06EFDF76BFC002883
:1038400024D0E06E416B884720E000215A200153CC
:10385000002060650F2021680862206880690821C7
:103860000843216888612020A0672046FFF7C3FF36
:103870000CE000215A200153002060650F202168D0
:1038800008622020A0672046FFF7B5FF002010BD8A
:1038900025540008704701464B6F8A6F1846104345
:1038A00070470000FEB504462068C56920680668B8
:1038B00020688768764828400190019800280ED13A
:1038C0002020284000280AD020203040002806D0A0
:1038D000206E002802D02046216E8847FEBD019848
:1038E00000287DD0F807C00F002804D1FF20213028
:1038F00030400028F5D0E807C00F00280BD0FF208B
:1039000001303040002806D0012021680862E06FB5
:1039100001210843E0670220284000280AD0F80768
:10392000C00F002806D0022021680862E06F042141
:103930000843E0670420284000280AD0F807C00F99
:10394000002806D0042021680862E06F02210843A5
:10395000E0670820284000280ED0202030400028B2
:1039600003D1F807C00F002806D00820216808629C
:10397000E06F08210843E0670120C00228400028CA
:103980000CD0012080063040002807D00120C00262
:1039900021680862E06F20210843E067E06F00289B
:1039A00046D020202840002809D020203040002880
:1039B00005D0206E002802D02046216E8847E06F97
:1039C00000902068806840210840402804D02821C9
:1039D00000980840002826D0204601F038FD00E07D
:1039E00027E02068806840210840402817D12068DF
:1039F0008068884321688860E06E00280BD02548E5
:103A0000E16E4863E06EFDF785FB002810D0E06EA4
:103A1000416B88470CE02046FFF73CFF08E020465A
:103A2000FFF738FF04E02046FFF734FF0020E0678F
:103A300054E701200005284000280CD00120800513
:103A40003840002807D00120000521680862204680
:103A5000FFF7D0FE42E78020284000280AD08020CF
:103A60003040002806D0606E002802D02046616EEB
:103A7000884733E740202840002807D040203040C6
:103A8000002803D0204601F0F4FC27E700BF25E71B
:103A90000F0800000D54000810B50446002C01D199
:103AA000012010BDA06900280AD02449206888425E
:103AB00000D10FE0FF212B3121A002F065F809E0D1
:103AC0001E492068884200D104E0FF2130311CA04B
:103AD00002F05AF8606F002805D1002170200155CE
:103AE000204600F04BF824206067206800684008FA
:103AF000400021680860204601F036FD012800D111
:103B0000CFE7606A002802D0204601F091FA2068D1
:103B100040680921C902884321684860206880689C
:103B20002A218843216888602068006801210843B1
:103B300021680860204601F0B1FBB2E7003801407F
:103B40002E2E5C4C69627261726965735C53544DD0
:103B50003332463078785F48414C5F44726976650D
:103B6000725C5372635C73746D3332663078785F65
:103B700068616C5F756172742E63000070470000AD
:103B800010B50346986F20286CD1002901D0002A77
:103B900001D1012010BD012424039868A04208D15E
:103BA0001869002805D1C807C00F002801D00120DE
:103BB000F0E700BF7020C05C012801D10220E9E7D6
:103BC00001247020C45400BF59655820C2525A20A5
:103BD000C2520020186600BF24039868A0420AD190
:103BE0001869002803D1204C5C20C45214E0FF2443
:103BF0005C20C45210E0986800280AD11869002897
:103C000003D1FF245C20C45206E07F245C20C45210
:103C100002E000245C20C45200BF0020D8672220AC
:103C2000986718688068012420431C68A0600124FC
:103C300024039868A04205D11869002802D10B48D6
:103C4000186601E00A48186600BF00247020C454BA
:103C500000BF18680068FF24213420431C682060DE
:103C6000002097E7022095E7FF0100009354000829
:103C7000FD54000870B50446304884425CD1304899
:103C8000407B03280CD101202E49087000202E49CA
:103C9000086001202D49087000202D49086070BD82
:103CA0002848007800280BD00020264908702448B6
:103CB0000078401E82B227492048FFF761FF3BE0B1
:103CC00000251F48407B012816D12248401E00785D
:103CD0002049491E497848401E49491E8978484074
:103CE000E52148401B49491EC978884201D101207D
:103CF00000E00020054611E01148407B02280DD16C
:103D00001448401E0078E52148401249491E497870
:103D1000884201D1012000E000200546002D05D198
:103D20000C49491E064800F001FA04E00949491E01
:103D3000034800F063F800BF00BFB0E7DC010020DB
:103D40000C0000201C000020EC0000201D000020C2
:103D5000F00000200600002010B50346586F202810
:103D600041D1002901D0002A01D1012010BD012438
:103D700024039868A04208D11869002805D1C80713
:103D8000C00F002801D00120F0E700BF7020C05C08
:103D9000012801D10220E9E701247020C45400BFAA
:103DA000D9645020C2525220C25200205866D867AF
:103DB0002120586724039868A04205D1186900287B
:103DC00002D10A48586601E00948586600BF00243D
:103DD0007020C45400BF18680068802420431C6809
:103DE00020600020C2E70220C0E7000079580008E8
:103DF000C1580008704700BFFEE7000070B50546D7
:103E00000C4600262078112804D012281CD0302817
:103E100041D120E060780002FF2109020840A1782A
:103E2000084306462048C08EB0420CDD31461E488D
:103E30004038FDF73FF8204600F08AFB1B4A21215D
:103E4000284600F02DFB2CE01748828924212846C3
:103E500000F026FB25E0687B022804D014492846A0
:103E600000F064F91DE00020124908700120124999
:103E700008700020114908600120114908700020D5
:103E8000104908600321284600F080F906210E48F9
:103E900000F041FB05E0054A2321284600F000FB25
:103EA00000BF00BF70BD000060000020AAAA000093
:103EB000050000201E0000201C000020EC00002057
:103EC0001D000020F00000200A000020FEB506467C
:103ED0000C460194019C6000FCF778F905466200ED
:103EE00031462846FCF75BFA00211DE0002015E072
:103EF0004200AA5A431C5B00EB5A9A420CDD420076
:103F0000AA5A0092421C5200AA5A4300EA52431C89
:103F10005B00009AEA5200BF421CD0B2621A521EE5
:103F20008242E5DC481CC1B2601E8842DEDC2046CD
:103F3000E10F0918491049006F5A2846FCF777F934
:103F40003846FEBD00BFFEE770B500254F49886DBD
:103F5000FCF74EFC01B24D484030C1800624045F9E
:103F600021464B4801F034FD002838D1484800F084
:103F700044F90546A54211D144484030458001200E
:103F800040020921C9068861FF20F530FDF7EEF8EF
:103F9000012040020921C906886276E00120400222
:103FA0000921C9068861FF20F530FDF7DFF80120FF
:103FB00040020921C9068862FF20F530FDF7D6F8D6
:103FC000012040020921C9068861FF20F530FDF774
:103FD000CDF8012040020921C906886255E0012080
:103FE00040020921C9068861FF20F530FDF7BEF8BF
:103FF000012040020921C9068862FF20F530FDF743
:10400000B5F8012040020921C9068861FF20F5307A
:10401000FDF7ACF8012040020921C9068862FF20A3
:10402000F530FDF7A3F8012040020921C906886197
:10403000FF20F530FDF79AF8012040020921C9065A
:104040008862FF20F530FDF791F801204002092138
:10405000C9068861FF20F530FDF788F8012040028D
:104060000921C9068862FF20F530FDF77FF801209D
:1040700040020921C9068861FF20F530FDF776F876
:10408000012040020921C906886270BD200000207D
:104090000070000870477047F8B504460D46164694
:1040A0003146284601F0A8FF20602168206A01F00F
:1040B0001FFFA0602168606A01F01AFF0746E168EF
:1040C00001F0A6FEE0606169E06801F069FF02D2DC
:1040D0006069E06006E0A169E06801F0DFFE01D2FE
:1040E000A069E0606168206801F086FF0746A16A68
:1040F00001F0FEFE206120686060E168A06801F0C8
:1041000087FE0746216901F083FEE0616169E0698D
:1041100001F046FF02D26069E06106E0A169E06952
:1041200001F0BCFE01D2A069E061F8BD70B50546A2
:104130000C460F48FCF74DFE0121284600F026F8FA
:1041400001200C49087000200B49086001200B4930
:10415000087000200A49086001200A490870002000
:10416000094908602873204600F0DCF970BD0000A2
:104170000A0000201C000020EC0000201D00002090
:10418000F00000201E000020F400002000B5417364
:104190000B0001F0AFFC050809040A0B070002221E
:1041A000027006E000BF00BF00BF00BF0422027023
:1041B00000BF00BF00BD70B50446218AE068FDF76E
:1041C000DDFA05466078A84202D0FDF74FFB60603B
:1041D000FDF74CFB6168401AA16888420BD9207832
:1041E000A84208D025702078012802D1FFF7ACFE44
:1041F00001E0FFF74FFF657070BD01460020085ECB
:104200007047000010B50248FEF7B6FA10BD000076
:104210005C02002070B505466C6A002146200153FF
:104220000020E0872046FEF7A5FA70BDF8B50446E9
:104230000E461546FF210531606888420ED10121E6
:10424000C903A068884203D04911A068884205D1FB
:1042500020680068402188432168086033460022B6
:1042600080212046009500F0B4F8002805D0206E8B
:104270002021084320660320F8BDFF210531606836
:10428000884218D10121C903A068884203D049118E
:10429000A06888420FD133460022032149022046FC
:1042A000009500F03FF8002805D0206E202108433B
:1042B00020660320E0E70020DEE7F8B504460E465E
:1042C0001546334600220321C9022046009500F01E
:1042D00029F8002805D0206E2021084320660320FD
:1042E000F8BD3346002280212046009500F071F889
:1042F000002805D0206E2021084320660320EFE728
:1043000033460022032149022046009500F00AF8B6
:10431000002805D0206E2021084320660320DFE717
:104320000020DDE7F8B504460E4617461D4649E075
:1043300003204002864203D1002F01D12068007B78
:10434000681C00283ED0FDF791FA0699401AA84251
:1043500001D2002D36D120684068E02188432168D1
:104360004860FF210531606888420ED10121C903F0
:10437000A068884203D04911A068884205D120680E
:104380000068402188432168086001214903A06A30
:1043900088420DD100BF206800688843216808600A
:1043A000206800680121490308432168086000BFB4
:1043B00001215D20015500BF00215C20015500BF97
:1043C0000320F8BD206880683040B842B0D100209A
:1043D000F7E7F8B504460E4617461D4641E0681C4F
:1043E00000283ED0FDF742FA0699401AA84201D2B1
:1043F000002D36D120684068E0218843216848605C
:10440000FF210531606888420ED10121C903A068EF
:10441000884203D04911A068884205D1206800680D
:10442000402188432168086001214903A06A88422D
:104430000DD100BF206800688843216808602068AB
:1044400000680121490308432168086000BF012179
:104450005D20015500BF00215C20015500BF0320F5
:10446000F8BD206880683040B04201D1012000E0F2
:104470000020B842B3D10020F2E7704710B50446DF
:1044800000BF0648FFF707FA2128FAD062780348F0
:104490006168FFF761FC0020207310BDDC01002083
:1044A00070B504460D4616466068057030126168A6
:1044B000487061688E70606800786168497848402B
:1044C000616889784840E52148406168C8700420E7
:1044D0006070212D04D102212046FFF757FE03E032
:1044E00001212046FFF752FE0120207370BD30B538
:1044F00004460D466068057060680078E521484014
:10450000616848700220607004212046FFF73EFE7B
:104510000120207330BD027801238B401A430270C2
:104520007047000010B504462046FCF745FC01200A
:104530000449087004490870012221460348FFF726
:104540001FFB10BD1C0000201D000020DC0100200E
:1045500010B504460B4800782021084000280CD1F3
:104560000848007840210840002806D10548FCF79B
:1045700030FC05210348FFF7CEFF2046FFF7D2FFAE
:1045800010BD00000A000020F8B507463249384641
:1045900001F084FC00D2304F7F21C905384601F07C
:1045A000FFFC01D27F27FF050021384601F076FC91
:1045B0000FD20022012189032848FDF717F9384658
:1045C000FCF73CF8490049080546FBF7F9FF0746A8
:1045D00004E0012291032148FDF708F93846FCF771
:1045E0002DF8490049080546052252071C4B01F0E9
:1045F000DDFB04D200211B48FFF74CF8F8BD1A4937
:10460000384601F075FC0546FCF718F90446DE341F
:1046100000BF21461548FBF723FF401E11490968DA
:10462000C86221461148FBF71BFF401E0D49C860B8
:1046300000BF0846C068401C400809684863094834
:1046400000680068C007C00F002803D1002105489A
:10465000FEF78CFF00BFD1E7000080BF00040048D8
:104660009999A93F1C0100200000FA4440420F0024
:1046700000B58DB000BF404840690121490408439E
:104680003D494861084640690121490408400090BD
:1046900000BF00BF00BF38484069490008433649A1
:1046A000486108464069012189040840009000BF24
:1046B00000BF00BF30488069C91108432E49886196
:1046C00008468069C9140840009000BF00BF14214B
:1046D00008A8FBF7C3FEFF200130089002200990D4
:1046E00000200A9003200B9002200C9008A90920BA
:1046F000C006FCF7A7FE0120800308900120099066
:1047000000200A9003200B9008A91C48FCF79AFE91
:104710001B481C4908601C491C480068FBF7A0FEA8
:10472000401E18494860002116488160FF21C231AF
:10473000C160002101618161FEF77EFE002801D089
:10474000FCF7BBFB1C2101A8FBF788FE6020019051
:104750000C48C068401C400802900020039005905F
:10476000002201A90748FEF727FD002801D0FCF729
:10477000A4FB0DB000BD0000001002400004004882
:10478000002C01401C01002040420F0018010020B5
:1047900010B5044605210748FCF715FB042006491F
:1047A000487001210448FFF7F1FC2046FFF7BAFEEC
:1047B00010BD00000A0000200C00002010B5FDF71D
:1047C0005BF8FCF71FFB5C4800685C49884205D237
:1047D00059480068401C5849086005E001205849C4
:1047E0000870002054490860564800680A2805D21D
:1047F00054480068401C5349086005E001205249B4
:10480000087000204F49086050480068022805D20F
:104810004E480068401C4D49086005E001204C49A5
:1048200008700020494908604A4800680A2805D2F3
:1048300048480068401C474908601CE0FCF72CFB16
:104840004548007840210840002811D0FCF7C4FA00
:1048500000280DD106214048FCF7B5FA01203F4958
:10486000087000203E49086025213E48FFF73FFEC2
:104870000020384908603B48407B032803D10020D2
:104880003949086017E039480078002803D0002033
:10489000354908600FE034480068401C3249086020
:1048A00008460068142806D33148FEF7A5FF3149B1
:1048B0002C48FFF73BFC2B48407B032803D100200A
:1048C0002D49086017E02D480078002803D000200B
:1048D000294908600FE028480068401C2649086004
:1048E00008460068642806D32148FEF785FF214961
:1048F0001C48FFF71BFC19480078002803D0002053
:104900001749086017E016480068401C1449086001
:10491000084600681A4988420DD306210E48FCF764
:1049200052FA26210F48FFF7E2FD01200B490870DB
:1049300000200B49086010BD040100201027000072
:10494000E0000020FC000020DE000020000100202C
:10495000DF000020F80000200A0000201E000020D8
:10496000F40000200C000020EC0000201C000020BF
:10497000DC01002005000020F00000201D000020C8
:10498000204E000000B595B0302109A8FBF766FD68
:1049900000200590069007900890019002900390E7
:1049A00004901220099001200C900E9010200D9080
:1049B0000F9002201190002112910521C90413913A
:1049C0000021149109A8FDF7CBFA002801D0FCF7CB
:1049D00074FA0720059002200690002007900890A6
:1049E000012105A8FDF7FCF8002801D0FCF765FAC5
:1049F000012001900020039001A8FCF7EBFF0028A4
:104A000001D0FCF75AFA15B000BD70470120C04331
:104A100001490968086170471C01002010B502684F
:104A2000214B984206D001239B07984202D01F4B8E
:104A3000984205D170241346A3431A464B681A4383
:104A4000194B98420FD001239B0798420BD0174B6C
:104A5000984208D0164B984205D0164B984202D087
:104A6000154B984206D1032424021346A3431A4649
:104A7000CB681A4380241346A3434C6923431A4648
:104A800002608B68C3620B688362074B984205D053
:104A9000084B984202D0084B984201D10B6903633E
:104AA0000123436110BD0000002C014000040040C0
:104AB000002000400044014000480140F8B5044691
:104AC0000D4616461B4884420FD0012080078442C1
:104AD0000BD01948844208D01848844205D01848A1
:104AE000844202D01748844200D103E0164917A03F
:104AF00001F04AF8002D07D0042D05D0082D03D071
:104B00000C2D01D03C2D00D104E00F49491C0FA011
:104B100001F03AF8E906C90E01278F40206AB84330
:104B20002062206AEA06D20E314691400843206294
:104B3000F8BD0000002C01400004004000200040AF
:104B400000440140004801403D1A00002E2E2F4C29
:104B500069627261726965732F53544D3332463006
:104B600078785F48414C5F4472697665722F537262
:104B7000632F73746D3332663078785F68616C5F71
:104B800074696D2E63000000F8B504460D46206A76
:104B9000400840002062266A6768A0690090702182
:104BA0000098884300900098800880000090286852
:104BB0000099084300900221304688430646A868C1
:104BC00006432D48844200D107E02C48844200D19E
:104BD00003E02B48844215D100BFE868002802D0CA
:104BE000E868082800D103E0264927A000F0CCFFA0
:104BF0000821304688430646E868064304213046CB
:104C0000884306461C48844205D01C48844202D092
:104C10001B48844228D101214902A869884202D058
:104C2000A869002800D104E02F21C90116A000F0D6
:104C3000ABFFFF2101316869884202D06869002812
:104C400000D104E00F490E310FA000F09DFFFF21BD
:104C500001313846884307464900384688430746AD
:104C600068690743A869074367600098A06168689E
:104C700060632662F8BD0000002C01400044014042
:104C800000480140731700002E2E2F4C696272619C
:104C9000726965732F53544D3332463078785F48CC
:104CA000414C5F4472697665722F5372632F73743F
:104CB0006D3332663078785F68616C5F74696D2E31
:104CC00063000000F8B504460D46206A10218843B1
:104CD0002062266A6768A06900900721090300988E
:104CE00088430090032109020098884300902868B7
:104CF0000002009908430090202130468843064670
:104D0000A868000106432E48844200D107E02D48E0
:104D1000844200D100BF2C48844216D115E0E868D7
:104D2000002802D0E868082800D103E0274928A01D
:104D300000F02AFF8021304688430646E8680001DB
:104D4000064340213046884306461D48844205D02C
:104D50001C48844202D01C4884422AD101214902C5
:104D6000A869884202D0A869002800D104E0174948
:104D70000E3117A000F008FFFF2101316869884259
:104D800002D06869002800D104E010490F3110A05A
:104D900000F0FAFE0121890238468843074649009F
:104DA000384688430746686980000743A869800041
:104DB000074367600098A0616868A0632662F8BD39
:104DC000002C01400044014000480140BE17000093
:104DD0002E2E2F4C69627261726965732F53544D88
:104DE0003332463078785F48414C5F44726976656B
:104DF000722F5372632F73746D3332663078785F1D
:104E000068616C5F74696D2E63000000F8B504463C
:104E10000D46206AFF21013188432062266A6768B7
:104E2000E069009070210098884300900098800805
:104E300080000090286800990843009001214902F1
:104E4000304688430646A868000206432E4884423E
:104E500000D107E02D48844200D100BF2C48844295
:104E600017D116E0E868002802D0E868082800D1C9
:104E700003E0284928A000F087FE0121C90230463E
:104E800088430646E86800020643491030468843D6
:104E900006461D48844205D01C48844202D01C4866
:104EA00084422AD101214902A869884202D0A86916
:104EB000002800D104E017490D3117A000F064FE6E
:104EC000FF2101316869884202D06869002800D159
:104ED00004E010490E3110A000F056FE0121090334
:104EE000384688430746490038468843074668697C
:104EF00000010743A8690001074367600098E0616B
:104F00006868E0632662F8BD002C0140004401405F
:104F100000480140091800002E2E2F4C6962726172
:104F2000726965732F53544D3332463078785F4839
:104F3000414C5F4472697665722F5372632F7374AC
:104F40006D3332663078785F68616C5F74696D2E9E
:104F500063000000F8B504460D46206A01210903EC
:104F600088432062276A60680090E6690721090388
:104F700030468843064603210902304688430646E8
:104F80002868000206430121490338468843074642
:104F9000A868000307431348844205D0124884429E
:104FA00002D01248844216D1FF210131686988423B
:104FB00002D06869002800D103E00D490DA000F07F
:104FC000E3FD01218903009888430090686980010E
:104FD00000990843009000986060E661686820646A
:104FE0002762F8BD002C0140004401400048014008
:104FF000551800002E2E2F4C69627261726965731C
:105000002F53544D3332463078785F48414C5F44DB
:1050100072697665722F5372632F73746D333266C3
:105020003078785F68616C5F74696D2E6300000092
:1050300010B50446606AFF2800D803E0864987A0BF
:1050400000F0A2FDA08CC007C00F002816D0A06AF7
:10505000002804D001214904A06A884200D104E05C
:105060007D49491D7DA000F08FFD20684068012129
:1050700049048843A16A0843216848600221606AA4
:105080000840022815D1E06A002803D0C903E06A6D
:10509000884200D104E070490C3170A000F074FD2A
:1050A00020684068012109048843E16A08432168B7
:1050B00048600421606A0840042815D1206B00284C
:1050C00003D00904206B884200D104E0BD2109010E
:1050D00062A000F059FD20684068012189048843DE
:1050E000216B0843216848600821606A084008284D
:1050F00015D1606B002803D00903606B884200D192
:1051000004E055491A3155A000F03EFD2068406882
:105110000121C9038843616B08432168486010215D
:10512000606A0840102815D1A06B002803D009023E
:10513000A06B884200D104E04749213147A000F02C
:1051400023FD20688068012109038843A16B08437F
:10515000216888602021606A0840202815D1E06B12
:10516000002803D00902E06B884200D104E03A49EC
:1051700028313AA000F008FD206880680121490329
:105180008843E16B0843216888604021606A0840D9
:10519000402844D140492068884200D104E02E498B
:1051A0002F312EA000F0F0FC206C002804D001214B
:1051B0000905206C884200D104E02749303127A03E
:1051C00000F0E2FC20684068012109058843216C59
:1051D00008432168486001210905206C88421ED1DE
:1051E000606C00280CD04900606C884208D04900EF
:1051F000606C884204D003214905606C884200D16C
:1052000004E01549353115A000F0BEFC2068406867
:10521000032149058843616C084321684860802167
:10522000606A0840802815D1A06C002803D00903CB
:10523000A06C884200D104E007493D3107A000F08E
:10524000A3FC206840680121C9048843A16C08437D
:105250002168486010BD0000BD0B00002E2E5C4C84
:1052600069627261726965735C53544D33324630C2
:1052700078785F48414C5F4472697665725C53721E
:10528000635C73746D3332663078785F68616C5F2D
:10529000756172742E6300000038014038B5044611
:1052A0000020E067FCF7E2FA054620680068082164
:1052B000084008280BD114482B460022890400908E
:1052C000204600F01FFB002801D0032038BD2068D5
:1052D00000680421084004280BD10B482B4600220B
:1052E00009050090204600F00DFB002801D00320A6
:1052F000ECE720206067A06700BF00217020015507
:1053000000BF0020E2E70000FFFFFF0110B586B0FC
:105310000446142101A8FBF7A1F800BF39488069B1
:1053200001218903084337498861084680690121C2
:1053300089030840009000BF00BF334820604B2025
:10534000C00160600021A160E16021610C21616108
:105350000021A161E1612162002060622046FEF728
:105360009BFB002801D0FBF7A8FD27492068884255
:1053700045D100BF23484069012149040843214920
:10538000486108464069012149040840009000BF77
:1053900000BF04200190022002900020039003200F
:1053A00004900120059001A90920C006FCF74AF8E5
:1053B00000BF14484069012149040843114948616C
:1053C00008464069012149040840009000BF00BF21
:1053D00008200190022002900020039003200490F6
:1053E0000120059001A90920C006FCF72BF8002236
:1053F00011461B20FCF7BEFA1B20FCF785FA06B00D
:1054000010BD0000001002400038014070B5054694
:105410006C6A00215A200153522001532046FEF7A6
:1054200039FA70BD70B505466C6A00215A200153E7
:105430000F202168086220688069082108432168DC
:1054400088612020A0672046FEF7D5F970BD01686D
:105450000968FF222132914302681160016889685E
:105460004908490002689160202181670021016696
:10547000704710B5044620680068402188432168C1
:10548000086020206067002060662046FEF7B2FCBE
:1054900010BDF8B504465C20075BA06F222826D11A
:1054A0002068868C656D304638402880606D801C91
:1054B00060655A20005B401E81B25A200153005B98
:1054C00000281AD120680068FF2121318843216813
:1054D00008602068806840084000216888602020BB
:1054E000A067002020662046FEF7C4FB05E0206888
:1054F00080690821084321688861F8BD70B50446B9
:105500005C20065BA06F222826D12068858CF0B233
:105510002840616D0870606D401C60655A20005B1A
:10552000401E81B25A200153005B00281AD1206826
:105530000068FF2121318843216808602068806865
:1055400040084000216888602020A0670020206675
:105550002046FEF78FFB05E020688069082108439C
:105560002168886170BD0000FEB504460027002058
:105570000090AB496068884200D204E02D21890187
:10558000A8A000F001FBA068002804D001210903B5
:10559000A068884200D103E0B149A2A000F0F4FA6B
:1055A00001210903E06888420CD0E068002809D096
:1055B00003210903E068884204D001214903E0681F
:1055C000884200D104E0A649491C96A000F0DCFA0C
:1055D000206A002804D00121C902206A884200D133
:1055E00004E09F49891C8FA000F0CEFA20690028B2
:1055F00009D0012189022069884204D0032149028F
:105600002069884200D104E09549091D85A000F079
:10561000BBFA0C2160698843002803D16069002827
:1056200000D004E08E49491D7EA000F0ADFAA069CB
:1056300000280DD0FF210131A069884208D049001F
:10564000A069884204D003210902A069884200D1E0
:1056500004E08349891D73A000F096FAE0690028F0
:1056600004D00121C903E069884200D104E07C49EB
:10567000C91D6CA000F088FA2169A068084361691F
:105680000843E169084302902068006875490840B2
:1056900002990843216808602068406803210903D3
:1056A0008843E168084321684860A0690290206A45
:1056B000029908430290206880680B210902884300
:1056C000029908432168886000BF6748006B800723
:1056D000800F002806D0012808D0022808D003280F
:1056E00008D101E0002607E0022605E0042603E0D9
:1056F000082601E0102600BF00BF00BF0121C9033A
:10570000E06988424AD1002E06D0022E10D0042E25
:1057100016D0082E29D11FE0FCF7A8FB05466A0029
:1057200063685B08D0186168FAF79AFE87B21FE0D9
:1057300061684A084D4BD018FAF792FE87B217E01D
:10574000FCF7A6FB05466A0063685B08D018616831
:10575000FAF786FE87B20BE061684A0801231B0452
:10576000D018FAF77DFE87B202E00120009000BF5A
:1057700000BF102F0FD33E4887420CD83C480F384B
:10578000384001903807400F019908430190019873
:105790002168C8603EE0012000903BE0002E06D06A
:1057A000022E0ED0042E14D0082E25D11BE0FCF7BB
:1057B0005DFB054661684A085019FAF751FE87B249
:1057C0001DE061684A082B4BD018FAF749FE87B2F2
:1057D00015E0FCF75DFB054661684A085019FAF7C9
:1057E0003FFE87B20BE061684A080123DB03D01853
:1057F000FAF736FE87B202E00120009000BF00BF3A
:10580000102F05D31A48874202D82068C76001E0EC
:10581000012000900020206660660098FEBD000018
:10582000818D5B002E2E5C4C6962726172696573BA
:105830005C53544D3332463078785F48414C5F4476
:1058400072697665725C5372635C73746D33326631
:105850003078785F68616C5F756172742E630000E8
:10586000410B0000F369FFFF001002400024F40028
:10587000FFFF000000127A00426F212A1FD152223E
:10588000125A002A0CD10268126880239A430368D6
:105890001A600268126840231A4303681A600EE017
:1058A000C16C0A88D205D20D03681A85C26C921C9D
:1058B000C2645222125A521E93B25222135270479D
:1058C000416F21291DD15221095A00290CD10168AB
:1058D00009688022914302681160016809684022CA
:1058E0001143026811600CE0C16C097802681185EF
:1058F000C16C491CC1645221095A491E8AB2522105
:105900000A527047FFB581B004460D4617460A9EFD
:105910004AE0701C002847D0FBF7A8FF0499401A02
:10592000B04201D8002E17D120680068FF21A131B4
:10593000884321680860206880684008400021682A
:10594000886020206067A06700BF0021702001559B
:1059500000BF032005B0F0BD2068006804210840A6
:10596000002821D02068C06949020840C00A0028E8
:105970001AD008462168086220680068FF21A1311A
:1059800088432168086020688068400840002168DA
:10599000886020206067A067E06700BF002170205A
:1059A000015500BF0320D5E72068C0692840A84200
:1059B00001D1012000E00020B842AAD00020C9E7B0
:1059C00010B50248FDF76EFF10BD0000DC0100209D
:1059D000F0B585B005460E4672B6FBF719FD3420CA
:1059E0001449C860002001901348029001200390E0
:1059F000694601A8FBF7D0FB0446002C05D0FBF755
:105A000069FC62B6204605B0F0BDB7B23A46002345
:105A100029460120FBF768FC0446002C04D0FBF764
:105A200059FC62B62046EEE7FBF754FC62B6002054
:105A3000E9E700000020024000700008FEB50446BF
:105A40000D461C4E1C4F1D4801903146A06800F0C9
:105A5000DFF92946009000F021FA03D27F20C0052B
:105A600060600DE01349A06800F0C6FA2946009076
:105A700000F096FA02D21248606001E000206060F7
:105A80006168E06800F034FA0090A16800F0C0F9A5
:105A9000A0600949A06800F083FA02D20648A0601D
:105AA00006E00649A06800F0F9F901D20348A060B9
:105AB000FEBD00006F12833A00007A4400007AC4F1
:105AC000000080BFF8B582B28BB2040C0D0C1046FA
:105AD0005843002126465E43370C3604801979412D
